{
  "contractName": "Part",
  "abi": [
    {
      "inputs": [],
      "stateMutability": "nonpayable",
      "type": "constructor"
    },
    {
      "anonymous": false,
      "inputs": [
        {
          "indexed": true,
          "internalType": "address",
          "name": "owner",
          "type": "address"
        },
        {
          "indexed": true,
          "internalType": "address",
          "name": "approved",
          "type": "address"
        },
        {
          "indexed": true,
          "internalType": "uint256",
          "name": "tokenId",
          "type": "uint256"
        }
      ],
      "name": "Approval",
      "type": "event"
    },
    {
      "anonymous": false,
      "inputs": [
        {
          "indexed": true,
          "internalType": "address",
          "name": "owner",
          "type": "address"
        },
        {
          "indexed": true,
          "internalType": "address",
          "name": "operator",
          "type": "address"
        },
        {
          "indexed": false,
          "internalType": "bool",
          "name": "approved",
          "type": "bool"
        }
      ],
      "name": "ApprovalForAll",
      "type": "event"
    },
    {
      "anonymous": false,
      "inputs": [
        {
          "indexed": true,
          "internalType": "address",
          "name": "previousOwner",
          "type": "address"
        },
        {
          "indexed": true,
          "internalType": "address",
          "name": "newOwner",
          "type": "address"
        }
      ],
      "name": "OwnershipTransferred",
      "type": "event"
    },
    {
      "anonymous": false,
      "inputs": [
        {
          "indexed": true,
          "internalType": "address",
          "name": "from",
          "type": "address"
        },
        {
          "indexed": true,
          "internalType": "address",
          "name": "to",
          "type": "address"
        },
        {
          "indexed": true,
          "internalType": "uint256",
          "name": "tokenId",
          "type": "uint256"
        }
      ],
      "name": "Transfer",
      "type": "event"
    },
    {
      "inputs": [
        {
          "internalType": "address",
          "name": "to",
          "type": "address"
        },
        {
          "internalType": "uint256",
          "name": "tokenId",
          "type": "uint256"
        }
      ],
      "name": "approve",
      "outputs": [],
      "stateMutability": "nonpayable",
      "type": "function"
    },
    {
      "inputs": [
        {
          "internalType": "address",
          "name": "owner",
          "type": "address"
        }
      ],
      "name": "balanceOf",
      "outputs": [
        {
          "internalType": "uint256",
          "name": "",
          "type": "uint256"
        }
      ],
      "stateMutability": "view",
      "type": "function",
      "constant": true
    },
    {
      "inputs": [
        {
          "internalType": "uint256",
          "name": "tokenId",
          "type": "uint256"
        }
      ],
      "name": "getApproved",
      "outputs": [
        {
          "internalType": "address",
          "name": "",
          "type": "address"
        }
      ],
      "stateMutability": "view",
      "type": "function",
      "constant": true
    },
    {
      "inputs": [
        {
          "internalType": "address",
          "name": "owner",
          "type": "address"
        },
        {
          "internalType": "address",
          "name": "operator",
          "type": "address"
        }
      ],
      "name": "isApprovedForAll",
      "outputs": [
        {
          "internalType": "bool",
          "name": "",
          "type": "bool"
        }
      ],
      "stateMutability": "view",
      "type": "function",
      "constant": true
    },
    {
      "inputs": [],
      "name": "name",
      "outputs": [
        {
          "internalType": "string",
          "name": "",
          "type": "string"
        }
      ],
      "stateMutability": "view",
      "type": "function",
      "constant": true
    },
    {
      "inputs": [],
      "name": "owner",
      "outputs": [
        {
          "internalType": "address",
          "name": "",
          "type": "address"
        }
      ],
      "stateMutability": "view",
      "type": "function",
      "constant": true
    },
    {
      "inputs": [
        {
          "internalType": "uint256",
          "name": "tokenId",
          "type": "uint256"
        }
      ],
      "name": "ownerOf",
      "outputs": [
        {
          "internalType": "address",
          "name": "",
          "type": "address"
        }
      ],
      "stateMutability": "view",
      "type": "function",
      "constant": true
    },
    {
      "inputs": [
        {
          "internalType": "uint256",
          "name": "",
          "type": "uint256"
        }
      ],
      "name": "partNames",
      "outputs": [
        {
          "internalType": "string",
          "name": "",
          "type": "string"
        }
      ],
      "stateMutability": "view",
      "type": "function",
      "constant": true
    },
    {
      "inputs": [],
      "name": "renounceOwnership",
      "outputs": [],
      "stateMutability": "nonpayable",
      "type": "function"
    },
    {
      "inputs": [
        {
          "internalType": "address",
          "name": "from",
          "type": "address"
        },
        {
          "internalType": "address",
          "name": "to",
          "type": "address"
        },
        {
          "internalType": "uint256",
          "name": "tokenId",
          "type": "uint256"
        }
      ],
      "name": "safeTransferFrom",
      "outputs": [],
      "stateMutability": "nonpayable",
      "type": "function"
    },
    {
      "inputs": [
        {
          "internalType": "address",
          "name": "from",
          "type": "address"
        },
        {
          "internalType": "address",
          "name": "to",
          "type": "address"
        },
        {
          "internalType": "uint256",
          "name": "tokenId",
          "type": "uint256"
        },
        {
          "internalType": "bytes",
          "name": "_data",
          "type": "bytes"
        }
      ],
      "name": "safeTransferFrom",
      "outputs": [],
      "stateMutability": "nonpayable",
      "type": "function"
    },
    {
      "inputs": [
        {
          "internalType": "address",
          "name": "operator",
          "type": "address"
        },
        {
          "internalType": "bool",
          "name": "approved",
          "type": "bool"
        }
      ],
      "name": "setApprovalForAll",
      "outputs": [],
      "stateMutability": "nonpayable",
      "type": "function"
    },
    {
      "inputs": [],
      "name": "symbol",
      "outputs": [
        {
          "internalType": "string",
          "name": "",
          "type": "string"
        }
      ],
      "stateMutability": "view",
      "type": "function",
      "constant": true
    },
    {
      "inputs": [
        {
          "internalType": "uint256",
          "name": "index",
          "type": "uint256"
        }
      ],
      "name": "tokenByIndex",
      "outputs": [
        {
          "internalType": "uint256",
          "name": "",
          "type": "uint256"
        }
      ],
      "stateMutability": "view",
      "type": "function",
      "constant": true
    },
    {
      "inputs": [
        {
          "internalType": "address",
          "name": "owner",
          "type": "address"
        },
        {
          "internalType": "uint256",
          "name": "index",
          "type": "uint256"
        }
      ],
      "name": "tokenOfOwnerByIndex",
      "outputs": [
        {
          "internalType": "uint256",
          "name": "",
          "type": "uint256"
        }
      ],
      "stateMutability": "view",
      "type": "function",
      "constant": true
    },
    {
      "inputs": [],
      "name": "totalSupply",
      "outputs": [
        {
          "internalType": "uint256",
          "name": "",
          "type": "uint256"
        }
      ],
      "stateMutability": "view",
      "type": "function",
      "constant": true
    },
    {
      "inputs": [
        {
          "internalType": "address",
          "name": "from",
          "type": "address"
        },
        {
          "internalType": "address",
          "name": "to",
          "type": "address"
        },
        {
          "internalType": "uint256",
          "name": "tokenId",
          "type": "uint256"
        }
      ],
      "name": "transferFrom",
      "outputs": [],
      "stateMutability": "nonpayable",
      "type": "function"
    },
    {
      "inputs": [
        {
          "internalType": "address",
          "name": "newOwner",
          "type": "address"
        }
      ],
      "name": "transferOwnership",
      "outputs": [],
      "stateMutability": "nonpayable",
      "type": "function"
    },
    {
      "inputs": [
        {
          "internalType": "address",
          "name": "_wallet",
          "type": "address"
        },
        {
          "internalType": "uint256",
          "name": "amount",
          "type": "uint256"
        }
      ],
      "name": "mintPart",
      "outputs": [
        {
          "internalType": "bool",
          "name": "",
          "type": "bool"
        }
      ],
      "stateMutability": "nonpayable",
      "type": "function"
    },
    {
      "inputs": [
        {
          "internalType": "address",
          "name": "_wallet",
          "type": "address"
        },
        {
          "internalType": "uint256",
          "name": "amount",
          "type": "uint256"
        }
      ],
      "name": "mintRobot",
      "outputs": [
        {
          "internalType": "bool",
          "name": "",
          "type": "bool"
        }
      ],
      "stateMutability": "nonpayable",
      "type": "function"
    },
    {
      "inputs": [
        {
          "internalType": "uint256",
          "name": "_tokenId",
          "type": "uint256"
        }
      ],
      "name": "burn",
      "outputs": [],
      "stateMutability": "nonpayable",
      "type": "function"
    },
    {
      "inputs": [
        {
          "internalType": "uint256",
          "name": "tokenId",
          "type": "uint256"
        }
      ],
      "name": "tokenURI",
      "outputs": [
        {
          "internalType": "string",
          "name": "",
          "type": "string"
        }
      ],
      "stateMutability": "view",
      "type": "function",
      "constant": true
    },
    {
      "inputs": [
        {
          "internalType": "bytes4",
          "name": "interfaceId",
          "type": "bytes4"
        }
      ],
      "name": "supportsInterface",
      "outputs": [
        {
          "internalType": "bool",
          "name": "",
          "type": "bool"
        }
      ],
      "stateMutability": "view",
      "type": "function",
      "constant": true
    },
    {
      "inputs": [],
      "name": "getRobotsCount",
      "outputs": [
        {
          "internalType": "uint256",
          "name": "",
          "type": "uint256"
        }
      ],
      "stateMutability": "view",
      "type": "function",
      "constant": true
    },
    {
      "inputs": [
        {
          "internalType": "string",
          "name": "_robot",
          "type": "string"
        }
      ],
      "name": "addRobot",
      "outputs": [],
      "stateMutability": "nonpayable",
      "type": "function"
    },
    {
      "inputs": [
        {
          "internalType": "uint256",
          "name": "index",
          "type": "uint256"
        }
      ],
      "name": "removeRobot",
      "outputs": [],
      "stateMutability": "nonpayable",
      "type": "function"
    },
    {
      "inputs": [
        {
          "internalType": "string",
          "name": "_robot",
          "type": "string"
        },
        {
          "internalType": "uint256",
          "name": "index",
          "type": "uint256"
        }
      ],
      "name": "updateRobot",
      "outputs": [],
      "stateMutability": "nonpayable",
      "type": "function"
    },
    {
      "inputs": [
        {
          "internalType": "uint256",
          "name": "number",
          "type": "uint256"
        }
      ],
      "name": "createRandom",
      "outputs": [
        {
          "internalType": "uint256",
          "name": "",
          "type": "uint256"
        }
      ],
      "stateMutability": "view",
      "type": "function",
      "constant": true
    }
  ],
  "bytecode": "0x60806040523480156200001157600080fd5b506040518060400160405280600b81526020017f576172626f7420506172740000000000000000000000000000000000000000008152506040518060400160405280600381526020017f575054000000000000000000000000000000000000000000000000000000000081525081600090805190602001906200009692919062000545565b508060019080519060200190620000af92919062000545565b505050620000d2620000c66200047760201b60201c565b6200047f60201b60201c565b6040518060400160405280600481526020017f4845414400000000000000000000000000000000000000000000000000000000815250600e600080815260200190815260200160002090805190602001906200013092919062000545565b506040518060400160405280600481526020017f424f445900000000000000000000000000000000000000000000000000000000815250600e60006001815260200190815260200160002090805190602001906200019092919062000545565b506040518060400160405280600881526020017f41524d534c454654000000000000000000000000000000000000000000000000815250600e6000600281526020019081526020016000209080519060200190620001f092919062000545565b506040518060400160405280600981526020017f41524d5352494748540000000000000000000000000000000000000000000000815250600e60006003815260200190815260200160002090805190602001906200025092919062000545565b506040518060400160405280600481526020017f4c45475300000000000000000000000000000000000000000000000000000000815250600e6000600481526020019081526020016000209080519060200190620002b092919062000545565b50600d80600181540180825580915050600190039060005260206000200160006040518060400160405280600a81526020017f4275696c646572626f7400000000000000000000000000000000000000000000815250909190915090805190602001906200032092919062000545565b50600d80600181540180825580915050600190039060005260206000200160006040518060400160405280600781526020017f456c6563626f7400000000000000000000000000000000000000000000000000815250909190915090805190602001906200039092919062000545565b50600d80600181540180825580915050600190039060005260206000200160006040518060400160405280600981526020017f4c756d626572626f740000000000000000000000000000000000000000000000815250909190915090805190602001906200040092919062000545565b50600d80600181540180825580915050600190039060005260206000200160006040518060400160405280600881526020017f5374756e74626f74000000000000000000000000000000000000000000000000815250909190915090805190602001906200047092919062000545565b506200065a565b600033905090565b6000600b60009054906101000a900473ffffffffffffffffffffffffffffffffffffffff16905081600b60006101000a81548173ffffffffffffffffffffffffffffffffffffffff021916908373ffffffffffffffffffffffffffffffffffffffff1602179055508173ffffffffffffffffffffffffffffffffffffffff168173ffffffffffffffffffffffffffffffffffffffff167f8be0079c531659141344cd1fd0a4f28419497f9722a3daafe3b4186f6b6457e060405160405180910390a35050565b8280546200055390620005f5565b90600052602060002090601f016020900481019282620005775760008555620005c3565b82601f106200059257805160ff1916838001178555620005c3565b82800160010185558215620005c3579182015b82811115620005c2578251825591602001919060010190620005a5565b5b509050620005d29190620005d6565b5090565b5b80821115620005f1576000816000905550600101620005d7565b5090565b600060028204905060018216806200060e57607f821691505b602082108114156200062557620006246200062b565b5b50919050565b7f4e487b7100000000000000000000000000000000000000000000000000000000600052602260045260246000fd5b614376806200066a6000396000f3fe608060405234801561001057600080fd5b50600436106101c45760003560e01c806377a3c118116100f9578063b88d4fde11610097578063c87b56dd11610071578063c87b56dd14610515578063e09a0f9b14610545578063e985e9c514610575578063f2fde38b146105a5576101c4565b8063b88d4fde146104c1578063c775829b146104dd578063c7fd0ddb146104f9576101c4565b80638da5cb5b116100d35780638da5cb5b1461043957806395d89b4114610457578063a22cb46514610475578063a4273ead14610491576101c4565b806377a3c118146103bb5780637bf1048e146103d957806388c1f01814610409576101c4565b806340575378116101665780634f6ccce7116101405780634f6ccce7146103215780636352211e1461035157806370a0823114610381578063715018a6146103b1576101c4565b806340575378146102cd57806342842e0e146102e957806342966c6814610305576101c4565b8063095ea7b3116101a2578063095ea7b31461024757806318160ddd1461026357806323b872dd146102815780632f745c591461029d576101c4565b806301ffc9a7146101c957806306fdde03146101f9578063081812fc14610217575b600080fd5b6101e360048036038101906101de91906131b6565b6105c1565b6040516101f09190613c24565b60405180910390f35b6102016105d3565b60405161020e9190613c3f565b60405180910390f35b610231600480360381019061022c919061329d565b610665565b60405161023e9190613bbd565b60405180910390f35b610261600480360381019061025c919061317a565b6106ea565b005b61026b610802565b6040516102789190613f01565b60405180910390f35b61029b60048036038101906102969190613074565b61080f565b005b6102b760048036038101906102b2919061317a565b61086f565b6040516102c49190613f01565b60405180910390f35b6102e760048036038101906102e29190613208565b610914565b005b61030360048036038101906102fe9190613074565b6109cf565b005b61031f600480360381019061031a919061329d565b6109ef565b005b61033b6004803603810190610336919061329d565b6109fb565b6040516103489190613f01565b60405180910390f35b61036b6004803603810190610366919061329d565b610a92565b6040516103789190613bbd565b60405180910390f35b61039b6004803603810190610396919061300f565b610b44565b6040516103a89190613f01565b60405180910390f35b6103b9610bfc565b005b6103c3610c84565b6040516103d09190613f01565b60405180910390f35b6103f360048036038101906103ee919061329d565b610c91565b6040516104009190613c3f565b60405180910390f35b610423600480360381019061041e919061317a565b610d31565b6040516104309190613c24565b60405180910390f35b610441610ddb565b60405161044e9190613bbd565b60405180910390f35b61045f610e05565b60405161046c9190613c3f565b60405180910390f35b61048f600480360381019061048a919061313e565b610e97565b005b6104ab60048036038101906104a6919061317a565b611018565b6040516104b89190613c24565b60405180910390f35b6104db60048036038101906104d691906130c3565b61109a565b005b6104f760048036038101906104f2919061329d565b6110fc565b005b610513600480360381019061050e9190613249565b6112b0565b005b61052f600480360381019061052a919061329d565b6113a6565b60405161053c9190613c3f565b60405180910390f35b61055f600480360381019061055a919061329d565b6113b8565b60405161056c9190613f01565b60405180910390f35b61058f600480360381019061058a9190613038565b6113ff565b60405161059c9190613c24565b60405180910390f35b6105bf60048036038101906105ba919061300f565b611493565b005b60006105cc8261158b565b9050919050565b6060600080546105e290614161565b80601f016020809104026020016040519081016040528092919081815260200182805461060e90614161565b801561065b5780601f106106305761010080835404028352916020019161065b565b820191906000526020600020905b81548152906001019060200180831161063e57829003601f168201915b5050505050905090565b600061067082611605565b6106af576040517f08c379a00000000000000000000000000000000000000000000000000000000081526004016106a690613e21565b60405180910390fd5b6004600083815260200190815260200160002060009054906101000a900473ffffffffffffffffffffffffffffffffffffffff169050919050565b60006106f582610a92565b90508073ffffffffffffffffffffffffffffffffffffffff168373ffffffffffffffffffffffffffffffffffffffff161415610766576040517f08c379a000000000000000000000000000000000000000000000000000000000815260040161075d90613ea1565b60405180910390fd5b8073ffffffffffffffffffffffffffffffffffffffff16610785611671565b73ffffffffffffffffffffffffffffffffffffffff1614806107b457506107b3816107ae611671565b6113ff565b5b6107f3576040517f08c379a00000000000000000000000000000000000000000000000000000000081526004016107ea90613d61565b60405180910390fd5b6107fd8383611679565b505050565b6000600880549050905090565b61082061081a611671565b82611732565b61085f576040517f08c379a000000000000000000000000000000000000000000000000000000000815260040161085690613ec1565b60405180910390fd5b61086a838383611810565b505050565b600061087a83610b44565b82106108bb576040517f08c379a00000000000000000000000000000000000000000000000000000000081526004016108b290613c61565b60405180910390fd5b600660008473ffffffffffffffffffffffffffffffffffffffff1673ffffffffffffffffffffffffffffffffffffffff168152602001908152602001600020600083815260200190815260200160002054905092915050565b61091c611671565b73ffffffffffffffffffffffffffffffffffffffff1661093a610ddb565b73ffffffffffffffffffffffffffffffffffffffff1614610990576040517f08c379a000000000000000000000000000000000000000000000000000000000815260040161098790613e41565b60405180910390fd5b600d819080600181540180825580915050600190039060005260206000200160009091909190915090805190602001906109cb929190612d66565b5050565b6109ea8383836040518060200160405280600081525061109a565b505050565b6109f881611a6c565b50565b6000610a05610802565b8210610a46576040517f08c379a0000000000000000000000000000000000000000000000000000000008152600401610a3d90613ee1565b60405180910390fd5b60088281548110610a80577f4e487b7100000000000000000000000000000000000000000000000000000000600052603260045260246000fd5b90600052602060002001549050919050565b6000806002600084815260200190815260200160002060009054906101000a900473ffffffffffffffffffffffffffffffffffffffff169050600073ffffffffffffffffffffffffffffffffffffffff168173ffffffffffffffffffffffffffffffffffffffff161415610b3b576040517f08c379a0000000000000000000000000000000000000000000000000000000008152600401610b3290613da1565b60405180910390fd5b80915050919050565b60008073ffffffffffffffffffffffffffffffffffffffff168273ffffffffffffffffffffffffffffffffffffffff161415610bb5576040517f08c379a0000000000000000000000000000000000000000000000000000000008152600401610bac90613d81565b60405180910390fd5b600360008373ffffffffffffffffffffffffffffffffffffffff1673ffffffffffffffffffffffffffffffffffffffff168152602001908152602001600020549050919050565b610c04611671565b73ffffffffffffffffffffffffffffffffffffffff16610c22610ddb565b73ffffffffffffffffffffffffffffffffffffffff1614610c78576040517f08c379a0000000000000000000000000000000000000000000000000000000008152600401610c6f90613e41565b60405180910390fd5b610c826000611a78565b565b6000600d80549050905090565b600e6020528060005260406000206000915090508054610cb090614161565b80601f0160208091040260200160405190810160405280929190818152602001828054610cdc90614161565b8015610d295780601f10610cfe57610100808354040283529160200191610d29565b820191906000526020600020905b815481529060010190602001808311610d0c57829003601f168201915b505050505081565b6000600a8210610d76576040517f08c379a0000000000000000000000000000000000000000000000000000000008152600401610d6d90613d21565b60405180910390fd5b60005b82811015610dd057610d8c846000611b3e565b50610d98846001611b3e565b50610da4846002611b3e565b50610db0846003611b3e565b50610dbc846004611b3e565b508080610dc890614193565b915050610d79565b506001905092915050565b6000600b60009054906101000a900473ffffffffffffffffffffffffffffffffffffffff16905090565b606060018054610e1490614161565b80601f0160208091040260200160405190810160405280929190818152602001828054610e4090614161565b8015610e8d5780601f10610e6257610100808354040283529160200191610e8d565b820191906000526020600020905b815481529060010190602001808311610e7057829003601f168201915b5050505050905090565b610e9f611671565b73ffffffffffffffffffffffffffffffffffffffff168273ffffffffffffffffffffffffffffffffffffffff161415610f0d576040517f08c379a0000000000000000000000000000000000000000000000000000000008152600401610f0490613d01565b60405180910390fd5b8060056000610f1a611671565b73ffffffffffffffffffffffffffffffffffffffff1673ffffffffffffffffffffffffffffffffffffffff16815260200190815260200160002060008473ffffffffffffffffffffffffffffffffffffffff1673ffffffffffffffffffffffffffffffffffffffff16815260200190815260200160002060006101000a81548160ff0219169083151502179055508173ffffffffffffffffffffffffffffffffffffffff16610fc7611671565b73ffffffffffffffffffffffffffffffffffffffff167f17307eab39ab6107e8899845ad3d59bd9653f200f220920489ca2b5937696c318360405161100c9190613c24565b60405180910390a35050565b6000600a821061105d576040517f08c379a000000000000000000000000000000000000000000000000000000000815260040161105490613d21565b60405180910390fd5b60005b8281101561108f5761107b8461107660046113b8565b611b3e565b50808061108790614193565b915050611060565b506001905092915050565b6110ab6110a5611671565b83611732565b6110ea576040517f08c379a00000000000000000000000000000000000000000000000000000000081526004016110e190613ec1565b60405180910390fd5b6110f684848484611d44565b50505050565b611104611671565b73ffffffffffffffffffffffffffffffffffffffff16611122610ddb565b73ffffffffffffffffffffffffffffffffffffffff1614611178576040517f08c379a000000000000000000000000000000000000000000000000000000000815260040161116f90613e41565b60405180910390fd5b60008190505b6001600d805490506111909190614077565b82101561125657600d6001826111a69190613ff0565b815481106111dd577f4e487b7100000000000000000000000000000000000000000000000000000000600052603260045260246000fd5b90600052602060002001600d8281548110611221577f4e487b7100000000000000000000000000000000000000000000000000000000600052603260045260246000fd5b9060005260206000200190805461123790614161565b611242929190612dec565b50808061124e90614193565b91505061117e565b50600d80548061128f577f4e487b7100000000000000000000000000000000000000000000000000000000600052603160045260246000fd5b6001900381819060005260206000200160006112ab9190612e79565b905550565b6112b8611671565b73ffffffffffffffffffffffffffffffffffffffff166112d6610ddb565b73ffffffffffffffffffffffffffffffffffffffff161461132c576040517f08c379a000000000000000000000000000000000000000000000000000000000815260040161132390613e41565b60405180910390fd5b6001600d8054905061133e9190614077565b811061134957600080fd5b81600d8281548110611384577f4e487b7100000000000000000000000000000000000000000000000000000000600052603260045260246000fd5b9060005260206000200190805190602001906113a1929190612d66565b505050565b60606113b182611da0565b9050919050565b6000816113c5600c611ef2565b6040516020016113d59190613ba2565b6040516020818303038152906040528051906020012060001c6113f891906141e6565b9050919050565b6000600560008473ffffffffffffffffffffffffffffffffffffffff1673ffffffffffffffffffffffffffffffffffffffff16815260200190815260200160002060008373ffffffffffffffffffffffffffffffffffffffff1673ffffffffffffffffffffffffffffffffffffffff16815260200190815260200160002060009054906101000a900460ff16905092915050565b61149b611671565b73ffffffffffffffffffffffffffffffffffffffff166114b9610ddb565b73ffffffffffffffffffffffffffffffffffffffff161461150f576040517f08c379a000000000000000000000000000000000000000000000000000000000815260040161150690613e41565b60405180910390fd5b600073ffffffffffffffffffffffffffffffffffffffff168173ffffffffffffffffffffffffffffffffffffffff16141561157f576040517f08c379a000000000000000000000000000000000000000000000000000000000815260040161157690613ca1565b60405180910390fd5b61158881611a78565b50565b60007f780e9d63000000000000000000000000000000000000000000000000000000007bffffffffffffffffffffffffffffffffffffffffffffffffffffffff1916827bffffffffffffffffffffffffffffffffffffffffffffffffffffffff191614806115fe57506115fd82611f00565b5b9050919050565b60008073ffffffffffffffffffffffffffffffffffffffff166002600084815260200190815260200160002060009054906101000a900473ffffffffffffffffffffffffffffffffffffffff1673ffffffffffffffffffffffffffffffffffffffff1614159050919050565b600033905090565b816004600083815260200190815260200160002060006101000a81548173ffffffffffffffffffffffffffffffffffffffff021916908373ffffffffffffffffffffffffffffffffffffffff160217905550808273ffffffffffffffffffffffffffffffffffffffff166116ec83610a92565b73ffffffffffffffffffffffffffffffffffffffff167f8c5be1e5ebec7d5bd14f71427d1e84f3dd0314c0f7b2291e5b200ac8c7c3b92560405160405180910390a45050565b600061173d82611605565b61177c576040517f08c379a000000000000000000000000000000000000000000000000000000000815260040161177390613d41565b60405180910390fd5b600061178783610a92565b90508073ffffffffffffffffffffffffffffffffffffffff168473ffffffffffffffffffffffffffffffffffffffff1614806117f657508373ffffffffffffffffffffffffffffffffffffffff166117de84610665565b73ffffffffffffffffffffffffffffffffffffffff16145b80611807575061180681856113ff565b5b91505092915050565b8273ffffffffffffffffffffffffffffffffffffffff1661183082610a92565b73ffffffffffffffffffffffffffffffffffffffff1614611886576040517f08c379a000000000000000000000000000000000000000000000000000000000815260040161187d90613e61565b60405180910390fd5b600073ffffffffffffffffffffffffffffffffffffffff168273ffffffffffffffffffffffffffffffffffffffff1614156118f6576040517f08c379a00000000000000000000000000000000000000000000000000000000081526004016118ed90613ce1565b60405180910390fd5b611901838383611fe2565b61190c600082611679565b6001600360008573ffffffffffffffffffffffffffffffffffffffff1673ffffffffffffffffffffffffffffffffffffffff168152602001908152602001600020600082825461195c9190614077565b925050819055506001600360008473ffffffffffffffffffffffffffffffffffffffff1673ffffffffffffffffffffffffffffffffffffffff16815260200190815260200160002060008282546119b39190613ff0565b92505081905550816002600083815260200190815260200160002060006101000a81548173ffffffffffffffffffffffffffffffffffffffff021916908373ffffffffffffffffffffffffffffffffffffffff160217905550808273ffffffffffffffffffffffffffffffffffffffff168473ffffffffffffffffffffffffffffffffffffffff167fddf252ad1be2c89b69c2b068fc378daa952ba7f163c4a11628f55a4df523b3ef60405160405180910390a4505050565b611a7581611ff2565b50565b6000600b60009054906101000a900473ffffffffffffffffffffffffffffffffffffffff16905081600b60006101000a81548173ffffffffffffffffffffffffffffffffffffffff021916908373ffffffffffffffffffffffffffffffffffffffff1602179055508173ffffffffffffffffffffffffffffffffffffffff168173ffffffffffffffffffffffffffffffffffffffff167f8be0079c531659141344cd1fd0a4f28419497f9722a3daafe3b4186f6b6457e060405160405180910390a35050565b600080611b4b600c611ef2565b90506000611b696001600d80549050611b649190614077565b6113b8565b9050611b758583612045565b611d2e611b82600c611ef2565b611d29600d8481548110611bbf577f4e487b7100000000000000000000000000000000000000000000000000000000600052603260045260246000fd5b906000526020600020018054611bd490614161565b80601f0160208091040260200160405190810160405280929190818152602001828054611c0090614161565b8015611c4d5780601f10611c2257610100808354040283529160200191611c4d565b820191906000526020600020905b815481529060010190602001808311611c3057829003601f168201915b50505050506040518060400160405280600181526020017f5f00000000000000000000000000000000000000000000000000000000000000815250600e60008a81526020019081526020016000208054611ca690614161565b80601f0160208091040260200160405190810160405280929190818152602001828054611cd290614161565b8015611d1f5780601f10611cf457610100808354040283529160200191611d1f565b820191906000526020600020905b815481529060010190602001808311611d0257829003601f168201915b5050505050612063565b612092565b611d38600c612106565b60019250505092915050565b611d4f848484611810565b611d5b8484848461211c565b611d9a576040517f08c379a0000000000000000000000000000000000000000000000000000000008152600401611d9190613c81565b60405180910390fd5b50505050565b6060611dab82611605565b611dea576040517f08c379a0000000000000000000000000000000000000000000000000000000008152600401611de190613e01565b60405180910390fd5b6000600a60008481526020019081526020016000208054611e0a90614161565b80601f0160208091040260200160405190810160405280929190818152602001828054611e3690614161565b8015611e835780601f10611e5857610100808354040283529160200191611e83565b820191906000526020600020905b815481529060010190602001808311611e6657829003601f168201915b505050505090506000611e946122b3565b9050600081511415611eaa578192505050611eed565b600082511115611edf578082604051602001611ec7929190613b4d565b60405160208183030381529060405292505050611eed565b611ee8846122ca565b925050505b919050565b600081600001549050919050565b60007f80ac58cd000000000000000000000000000000000000000000000000000000007bffffffffffffffffffffffffffffffffffffffffffffffffffffffff1916827bffffffffffffffffffffffffffffffffffffffffffffffffffffffff19161480611fcb57507f5b5e139f000000000000000000000000000000000000000000000000000000007bffffffffffffffffffffffffffffffffffffffffffffffffffffffff1916827bffffffffffffffffffffffffffffffffffffffffffffffffffffffff1916145b80611fdb5750611fda82612371565b5b9050919050565b611fed8383836123db565b505050565b611ffb816124ef565b6000600a6000838152602001908152602001600020805461201b90614161565b90501461204257600a600082815260200190815260200160002060006120419190612e79565b5b50565b61205f828260405180602001604052806000815250612600565b5050565b606083838360405160200161207a93929190613b71565b60405160208183030381529060405290509392505050565b61209b82611605565b6120da576040517f08c379a00000000000000000000000000000000000000000000000000000000081526004016120d190613dc1565b60405180910390fd5b80600a60008481526020019081526020016000209080519060200190612101929190612d66565b505050565b6001816000016000828254019250508190555050565b600061213d8473ffffffffffffffffffffffffffffffffffffffff1661265b565b156122a6578373ffffffffffffffffffffffffffffffffffffffff1663150b7a02612166611671565b8786866040518563ffffffff1660e01b81526004016121889493929190613bd8565b602060405180830381600087803b1580156121a257600080fd5b505af19250505080156121d357506040513d601f19601f820116820180604052508101906121d091906131df565b60015b612256573d8060008114612203576040519150601f19603f3d011682016040523d82523d6000602084013e612208565b606091505b5060008151141561224e576040517f08c379a000000000000000000000000000000000000000000000000000000000815260040161224590613c81565b60405180910390fd5b805181602001fd5b63150b7a0260e01b7bffffffffffffffffffffffffffffffffffffffffffffffffffffffff1916817bffffffffffffffffffffffffffffffffffffffffffffffffffffffff1916149150506122ab565b600190505b949350505050565b606060405180602001604052806000815250905090565b60606122d582611605565b612314576040517f08c379a000000000000000000000000000000000000000000000000000000000815260040161230b90613e81565b60405180910390fd5b600061231e6122b3565b9050600081511161233e5760405180602001604052806000815250612369565b806123488461266e565b604051602001612359929190613b4d565b6040516020818303038152906040525b915050919050565b60007f01ffc9a7000000000000000000000000000000000000000000000000000000007bffffffffffffffffffffffffffffffffffffffffffffffffffffffff1916827bffffffffffffffffffffffffffffffffffffffffffffffffffffffff1916149050919050565b6123e683838361281b565b600073ffffffffffffffffffffffffffffffffffffffff168373ffffffffffffffffffffffffffffffffffffffff1614156124295761242481612820565b612468565b8173ffffffffffffffffffffffffffffffffffffffff168373ffffffffffffffffffffffffffffffffffffffff1614612467576124668382612869565b5b5b600073ffffffffffffffffffffffffffffffffffffffff168273ffffffffffffffffffffffffffffffffffffffff1614156124ab576124a6816129d6565b6124ea565b8273ffffffffffffffffffffffffffffffffffffffff168273ffffffffffffffffffffffffffffffffffffffff16146124e9576124e88282612b19565b5b5b505050565b60006124fa82610a92565b905061250881600084611fe2565b612513600083611679565b6001600360008373ffffffffffffffffffffffffffffffffffffffff1673ffffffffffffffffffffffffffffffffffffffff16815260200190815260200160002060008282546125639190614077565b925050819055506002600083815260200190815260200160002060006101000a81549073ffffffffffffffffffffffffffffffffffffffff021916905581600073ffffffffffffffffffffffffffffffffffffffff168273ffffffffffffffffffffffffffffffffffffffff167fddf252ad1be2c89b69c2b068fc378daa952ba7f163c4a11628f55a4df523b3ef60405160405180910390a45050565b61260a8383612b98565b612617600084848461211c565b612656576040517f08c379a000000000000000000000000000000000000000000000000000000000815260040161264d90613c81565b60405180910390fd5b505050565b600080823b905060008111915050919050565b606060008214156126b6576040518060400160405280600181526020017f30000000000000000000000000000000000000000000000000000000000000008152509050612816565b600082905060005b600082146126e85780806126d190614193565b915050600a826126e19190614046565b91506126be565b60008167ffffffffffffffff81111561272a577f4e487b7100000000000000000000000000000000000000000000000000000000600052604160045260246000fd5b6040519080825280601f01601f19166020018201604052801561275c5781602001600182028036833780820191505090505b5090505b6000851461280f576001826127759190614077565b9150600a8561278491906141e6565b60306127909190613ff0565b60f81b8183815181106127cc577f4e487b7100000000000000000000000000000000000000000000000000000000600052603260045260246000fd5b60200101907effffffffffffffffffffffffffffffffffffffffffffffffffffffffffffff1916908160001a905350600a856128089190614046565b9450612760565b8093505050505b919050565b505050565b6008805490506009600083815260200190815260200160002081905550600881908060018154018082558091505060019003906000526020600020016000909190919091505550565b6000600161287684610b44565b6128809190614077565b9050600060076000848152602001908152602001600020549050818114612965576000600660008673ffffffffffffffffffffffffffffffffffffffff1673ffffffffffffffffffffffffffffffffffffffff168152602001908152602001600020600084815260200190815260200160002054905080600660008773ffffffffffffffffffffffffffffffffffffffff1673ffffffffffffffffffffffffffffffffffffffff168152602001908152602001600020600084815260200190815260200160002081905550816007600083815260200190815260200160002081905550505b6007600084815260200190815260200160002060009055600660008573ffffffffffffffffffffffffffffffffffffffff1673ffffffffffffffffffffffffffffffffffffffff16815260200190815260200160002060008381526020019081526020016000206000905550505050565b600060016008805490506129ea9190614077565b9050600060096000848152602001908152602001600020549050600060088381548110612a40577f4e487b7100000000000000000000000000000000000000000000000000000000600052603260045260246000fd5b906000526020600020015490508060088381548110612a88577f4e487b7100000000000000000000000000000000000000000000000000000000600052603260045260246000fd5b906000526020600020018190555081600960008381526020019081526020016000208190555060096000858152602001908152602001600020600090556008805480612afd577f4e487b7100000000000000000000000000000000000000000000000000000000600052603160045260246000fd5b6001900381819060005260206000200160009055905550505050565b6000612b2483610b44565b905081600660008573ffffffffffffffffffffffffffffffffffffffff1673ffffffffffffffffffffffffffffffffffffffff168152602001908152602001600020600083815260200190815260200160002081905550806007600084815260200190815260200160002081905550505050565b600073ffffffffffffffffffffffffffffffffffffffff168273ffffffffffffffffffffffffffffffffffffffff161415612c08576040517f08c379a0000000000000000000000000000000000000000000000000000000008152600401612bff90613de1565b60405180910390fd5b612c1181611605565b15612c51576040517f08c379a0000000000000000000000000000000000000000000000000000000008152600401612c4890613cc1565b60405180910390fd5b612c5d60008383611fe2565b6001600360008473ffffffffffffffffffffffffffffffffffffffff1673ffffffffffffffffffffffffffffffffffffffff1681526020019081526020016000206000828254612cad9190613ff0565b92505081905550816002600083815260200190815260200160002060006101000a81548173ffffffffffffffffffffffffffffffffffffffff021916908373ffffffffffffffffffffffffffffffffffffffff160217905550808273ffffffffffffffffffffffffffffffffffffffff16600073ffffffffffffffffffffffffffffffffffffffff167fddf252ad1be2c89b69c2b068fc378daa952ba7f163c4a11628f55a4df523b3ef60405160405180910390a45050565b828054612d7290614161565b90600052602060002090601f016020900481019282612d945760008555612ddb565b82601f10612dad57805160ff1916838001178555612ddb565b82800160010185558215612ddb579182015b82811115612dda578251825591602001919060010190612dbf565b5b509050612de89190612eb9565b5090565b828054612df890614161565b90600052602060002090601f016020900481019282612e1a5760008555612e68565b82601f10612e2b5780548555612e68565b82800160010185558215612e6857600052602060002091601f016020900482015b82811115612e67578254825591600101919060010190612e4c565b5b509050612e759190612eb9565b5090565b508054612e8590614161565b6000825580601f10612e975750612eb6565b601f016020900490600052602060002090810190612eb59190612eb9565b5b50565b5b80821115612ed2576000816000905550600101612eba565b5090565b6000612ee9612ee484613f4d565b613f1c565b905082815260208101848484011115612f0157600080fd5b612f0c84828561411f565b509392505050565b6000612f27612f2284613f7d565b613f1c565b905082815260208101848484011115612f3f57600080fd5b612f4a84828561411f565b509392505050565b600081359050612f61816142e4565b92915050565b600081359050612f76816142fb565b92915050565b600081359050612f8b81614312565b92915050565b600081519050612fa081614312565b92915050565b600082601f830112612fb757600080fd5b8135612fc7848260208601612ed6565b91505092915050565b600082601f830112612fe157600080fd5b8135612ff1848260208601612f14565b91505092915050565b60008135905061300981614329565b92915050565b60006020828403121561302157600080fd5b600061302f84828501612f52565b91505092915050565b6000806040838503121561304b57600080fd5b600061305985828601612f52565b925050602061306a85828601612f52565b9150509250929050565b60008060006060848603121561308957600080fd5b600061309786828701612f52565b93505060206130a886828701612f52565b92505060406130b986828701612ffa565b9150509250925092565b600080600080608085870312156130d957600080fd5b60006130e787828801612f52565b94505060206130f887828801612f52565b935050604061310987828801612ffa565b925050606085013567ffffffffffffffff81111561312657600080fd5b61313287828801612fa6565b91505092959194509250565b6000806040838503121561315157600080fd5b600061315f85828601612f52565b925050602061317085828601612f67565b9150509250929050565b6000806040838503121561318d57600080fd5b600061319b85828601612f52565b92505060206131ac85828601612ffa565b9150509250929050565b6000602082840312156131c857600080fd5b60006131d684828501612f7c565b91505092915050565b6000602082840312156131f157600080fd5b60006131ff84828501612f91565b91505092915050565b60006020828403121561321a57600080fd5b600082013567ffffffffffffffff81111561323457600080fd5b61324084828501612fd0565b91505092915050565b6000806040838503121561325c57600080fd5b600083013567ffffffffffffffff81111561327657600080fd5b61328285828601612fd0565b925050602061329385828601612ffa565b9150509250929050565b6000602082840312156132af57600080fd5b60006132bd84828501612ffa565b91505092915050565b6132cf816140ab565b82525050565b6132de816140bd565b82525050565b60006132ef82613fad565b6132f98185613fc3565b935061330981856020860161412e565b613312816142d3565b840191505092915050565b600061332882613fb8565b6133328185613fd4565b935061334281856020860161412e565b61334b816142d3565b840191505092915050565b600061336182613fb8565b61336b8185613fe5565b935061337b81856020860161412e565b80840191505092915050565b6000613394602b83613fd4565b91507f455243373231456e756d657261626c653a206f776e657220696e646578206f7560008301527f74206f6620626f756e64730000000000000000000000000000000000000000006020830152604082019050919050565b60006133fa603283613fd4565b91507f4552433732313a207472616e7366657220746f206e6f6e20455243373231526560008301527f63656976657220696d706c656d656e74657200000000000000000000000000006020830152604082019050919050565b6000613460602683613fd4565b91507f4f776e61626c653a206e6577206f776e657220697320746865207a65726f206160008301527f64647265737300000000000000000000000000000000000000000000000000006020830152604082019050919050565b60006134c6601c83613fd4565b91507f4552433732313a20746f6b656e20616c7265616479206d696e746564000000006000830152602082019050919050565b6000613506602483613fd4565b91507f4552433732313a207472616e7366657220746f20746865207a65726f2061646460008301527f72657373000000000000000000000000000000000000000000000000000000006020830152604082019050919050565b600061356c601983613fd4565b91507f4552433732313a20617070726f766520746f2063616c6c6572000000000000006000830152602082019050919050565b60006135ac601783613fd4565b91507f4d6178696d756d20616d6f756e742065786365656465640000000000000000006000830152602082019050919050565b60006135ec602c83613fd4565b91507f4552433732313a206f70657261746f7220717565727920666f72206e6f6e657860008301527f697374656e7420746f6b656e00000000000000000000000000000000000000006020830152604082019050919050565b6000613652603883613fd4565b91507f4552433732313a20617070726f76652063616c6c6572206973206e6f74206f7760008301527f6e6572206e6f7220617070726f76656420666f7220616c6c00000000000000006020830152604082019050919050565b60006136b8602a83613fd4565b91507f4552433732313a2062616c616e636520717565727920666f7220746865207a6560008301527f726f2061646472657373000000000000000000000000000000000000000000006020830152604082019050919050565b600061371e602983613fd4565b91507f4552433732313a206f776e657220717565727920666f72206e6f6e657869737460008301527f656e7420746f6b656e00000000000000000000000000000000000000000000006020830152604082019050919050565b6000613784602e83613fd4565b91507f45524337323155524953746f726167653a2055524920736574206f66206e6f6e60008301527f6578697374656e7420746f6b656e0000000000000000000000000000000000006020830152604082019050919050565b60006137ea602083613fd4565b91507f4552433732313a206d696e7420746f20746865207a65726f20616464726573736000830152602082019050919050565b600061382a603183613fd4565b91507f45524337323155524953746f726167653a2055524920717565727920666f722060008301527f6e6f6e6578697374656e7420746f6b656e0000000000000000000000000000006020830152604082019050919050565b6000613890602c83613fd4565b91507f4552433732313a20617070726f76656420717565727920666f72206e6f6e657860008301527f697374656e7420746f6b656e00000000000000000000000000000000000000006020830152604082019050919050565b60006138f6602083613fd4565b91507f4f776e61626c653a2063616c6c6572206973206e6f7420746865206f776e65726000830152602082019050919050565b6000613936602983613fd4565b91507f4552433732313a207472616e73666572206f6620746f6b656e2074686174206960008301527f73206e6f74206f776e00000000000000000000000000000000000000000000006020830152604082019050919050565b600061399c602f83613fd4565b91507f4552433732314d657461646174613a2055524920717565727920666f72206e6f60008301527f6e6578697374656e7420746f6b656e00000000000000000000000000000000006020830152604082019050919050565b6000613a02602183613fd4565b91507f4552433732313a20617070726f76616c20746f2063757272656e74206f776e6560008301527f72000000000000000000000000000000000000000000000000000000000000006020830152604082019050919050565b6000613a68603183613fd4565b91507f4552433732313a207472616e736665722063616c6c6572206973206e6f74206f60008301527f776e6572206e6f7220617070726f7665640000000000000000000000000000006020830152604082019050919050565b6000613ace602c83613fd4565b91507f455243373231456e756d657261626c653a20676c6f62616c20696e646578206f60008301527f7574206f6620626f756e647300000000000000000000000000000000000000006020830152604082019050919050565b613b3081614115565b82525050565b613b47613b4282614115565b6141dc565b82525050565b6000613b598285613356565b9150613b658284613356565b91508190509392505050565b6000613b7d8286613356565b9150613b898285613356565b9150613b958284613356565b9150819050949350505050565b6000613bae8284613b36565b60208201915081905092915050565b6000602082019050613bd260008301846132c6565b92915050565b6000608082019050613bed60008301876132c6565b613bfa60208301866132c6565b613c076040830185613b27565b8181036060830152613c1981846132e4565b905095945050505050565b6000602082019050613c3960008301846132d5565b92915050565b60006020820190508181036000830152613c59818461331d565b905092915050565b60006020820190508181036000830152613c7a81613387565b9050919050565b60006020820190508181036000830152613c9a816133ed565b9050919050565b60006020820190508181036000830152613cba81613453565b9050919050565b60006020820190508181036000830152613cda816134b9565b9050919050565b60006020820190508181036000830152613cfa816134f9565b9050919050565b60006020820190508181036000830152613d1a8161355f565b9050919050565b60006020820190508181036000830152613d3a8161359f565b9050919050565b60006020820190508181036000830152613d5a816135df565b9050919050565b60006020820190508181036000830152613d7a81613645565b9050919050565b60006020820190508181036000830152613d9a816136ab565b9050919050565b60006020820190508181036000830152613dba81613711565b9050919050565b60006020820190508181036000830152613dda81613777565b9050919050565b60006020820190508181036000830152613dfa816137dd565b9050919050565b60006020820190508181036000830152613e1a8161381d565b9050919050565b60006020820190508181036000830152613e3a81613883565b9050919050565b60006020820190508181036000830152613e5a816138e9565b9050919050565b60006020820190508181036000830152613e7a81613929565b9050919050565b60006020820190508181036000830152613e9a8161398f565b9050919050565b60006020820190508181036000830152613eba816139f5565b9050919050565b60006020820190508181036000830152613eda81613a5b565b9050919050565b60006020820190508181036000830152613efa81613ac1565b9050919050565b6000602082019050613f166000830184613b27565b92915050565b6000604051905081810181811067ffffffffffffffff82111715613f4357613f426142a4565b5b8060405250919050565b600067ffffffffffffffff821115613f6857613f676142a4565b5b601f19601f8301169050602081019050919050565b600067ffffffffffffffff821115613f9857613f976142a4565b5b601f19601f8301169050602081019050919050565b600081519050919050565b600081519050919050565b600082825260208201905092915050565b600082825260208201905092915050565b600081905092915050565b6000613ffb82614115565b915061400683614115565b9250827fffffffffffffffffffffffffffffffffffffffffffffffffffffffffffffffff0382111561403b5761403a614217565b5b828201905092915050565b600061405182614115565b915061405c83614115565b92508261406c5761406b614246565b5b828204905092915050565b600061408282614115565b915061408d83614115565b9250828210156140a05761409f614217565b5b828203905092915050565b60006140b6826140f5565b9050919050565b60008115159050919050565b60007fffffffff0000000000000000000000000000000000000000000000000000000082169050919050565b600073ffffffffffffffffffffffffffffffffffffffff82169050919050565b6000819050919050565b82818337600083830152505050565b60005b8381101561414c578082015181840152602081019050614131565b8381111561415b576000848401525b50505050565b6000600282049050600182168061417957607f821691505b6020821081141561418d5761418c614275565b5b50919050565b600061419e82614115565b91507fffffffffffffffffffffffffffffffffffffffffffffffffffffffffffffffff8214156141d1576141d0614217565b5b600182019050919050565b6000819050919050565b60006141f182614115565b91506141fc83614115565b92508261420c5761420b614246565b5b828206905092915050565b7f4e487b7100000000000000000000000000000000000000000000000000000000600052601160045260246000fd5b7f4e487b7100000000000000000000000000000000000000000000000000000000600052601260045260246000fd5b7f4e487b7100000000000000000000000000000000000000000000000000000000600052602260045260246000fd5b7f4e487b7100000000000000000000000000000000000000000000000000000000600052604160045260246000fd5b6000601f19601f8301169050919050565b6142ed816140ab565b81146142f857600080fd5b50565b614304816140bd565b811461430f57600080fd5b50565b61431b816140c9565b811461432657600080fd5b50565b61433281614115565b811461433d57600080fd5b5056fea264697066735822122011686ea9add93af82db62832d5e15988392bb466ea7855f639677bc3e22ca1cb64736f6c63430008000033",
  "immutableReferences": {},
  "source": "/*\r\n SPDX-License-Identifier: MIT\r\n*/\r\npragma solidity ^0.8.0;\r\n\r\nimport \"@openzeppelin/contracts/token/ERC721/extensions/ERC721URIStorage.sol\";\r\nimport \"@openzeppelin/contracts/token/ERC721/extensions/ERC721Enumerable.sol\";\r\nimport \"@openzeppelin/contracts/utils/Counters.sol\";\r\nimport \"@openzeppelin/contracts/access/Ownable.sol\";\r\n\r\ncontract Part is ERC721Enumerable, ERC721URIStorage, Ownable {\r\n    using Counters for Counters.Counter;\r\n    Counters.Counter private _tokenIdCounter;\r\n\r\n    string[] private robots;\r\n    mapping(uint256 => string) public partNames;\r\n\r\n    constructor() ERC721(\"Warbot Part\", \"WPT\") {\r\n        // Set mapping to convert PartsType to string\r\n        partNames[0] = \"HEAD\";\r\n        partNames[1] = \"BODY\";\r\n        partNames[2] = \"ARMSLEFT\";\r\n        partNames[3] = \"ARMSRIGHT\";\r\n        partNames[4] = \"LEGS\";\r\n\r\n        // Register initial robots in game\r\n        robots.push(\"Builderbot\");\r\n        robots.push(\"Elecbot\");\r\n        robots.push(\"Lumberbot\");\r\n        robots.push(\"Stuntbot\");\r\n    }\r\n\r\n    function mintPart(address _wallet, uint256 amount) public returns (bool) {\r\n        require(amount < 10, \"Maximum amount exceeded\");\r\n        for (uint256 i = 0; i < amount; i++) {\r\n            _mintPart(_wallet, createRandom(4));\r\n        }\r\n        return true;\r\n    }\r\n\r\n    function mintRobot(address _wallet, uint256 amount) public returns (bool) {\r\n        require(amount < 10, \"Maximum amount exceeded\");\r\n        for (uint256 i = 0; i < amount; i++) {\r\n            _mintPart(_wallet, 0);\r\n            _mintPart(_wallet, 1);\r\n            _mintPart(_wallet, 2);\r\n            _mintPart(_wallet, 3);\r\n            _mintPart(_wallet, 4);\r\n        }\r\n        return true;\r\n    }\r\n\r\n    function burn(uint256 _tokenId) public {\r\n        _burn(_tokenId);\r\n    }\r\n\r\n    function tokenURI(uint256 tokenId)\r\n        public\r\n        view\r\n        override(ERC721, ERC721URIStorage)\r\n        returns (string memory)\r\n    {\r\n        return super.tokenURI(tokenId);\r\n    }\r\n\r\n    function supportsInterface(bytes4 interfaceId)\r\n        public\r\n        view\r\n        override(ERC721, ERC721Enumerable)\r\n        returns (bool)\r\n    {\r\n        return super.supportsInterface(interfaceId);\r\n    }\r\n\r\n    function _mintPart(address _wallet, uint256 partType)\r\n        private\r\n        returns (bool)\r\n    {\r\n        uint256 tokenId = _tokenIdCounter.current();\r\n        uint256 robotIndex = createRandom(robots.length - 1);\r\n\r\n        _safeMint(_wallet, tokenId);\r\n        _setTokenURI(\r\n            _tokenIdCounter.current(),\r\n            append(robots[robotIndex], \"_\", partNames[partType])\r\n        );\r\n        _tokenIdCounter.increment();\r\n\r\n        return true;\r\n    }\r\n\r\n    function _burn(uint256 tokenId)\r\n        internal\r\n        override(ERC721, ERC721URIStorage)\r\n    {\r\n        super._burn(tokenId);\r\n    }\r\n\r\n    function _beforeTokenTransfer(\r\n        address from,\r\n        address to,\r\n        uint256 tokenId\r\n    ) internal override(ERC721, ERC721Enumerable) {\r\n        super._beforeTokenTransfer(from, to, tokenId);\r\n    }\r\n\r\n    // Manage the list of mintable robots\r\n\r\n    function getRobotsCount() public view returns (uint256) {\r\n        return robots.length;\r\n    }\r\n\r\n    function addRobot(string memory _robot) external onlyOwner {\r\n        robots.push(_robot);\r\n    }\r\n\r\n    function removeRobot(uint256 index) external onlyOwner {\r\n        for (uint256 i = index; index < robots.length - 1; i++) {\r\n            robots[i] = robots[i + 1];\r\n        }\r\n        robots.pop();\r\n    }\r\n\r\n    function updateRobot(string memory _robot, uint256 index)\r\n        external\r\n        onlyOwner\r\n    {\r\n        require(index < robots.length - 1);\r\n        robots[index] = _robot;\r\n    }\r\n\r\n    // Auxiliary Functions\r\n\r\n    function createRandom(uint256 number) public view returns (uint256) {\r\n        return\r\n            uint256(keccak256(abi.encodePacked(_tokenIdCounter.current()))) %\r\n            number;\r\n    }\r\n\r\n    function append(\r\n        string memory a,\r\n        string memory b,\r\n        string memory c\r\n    ) internal pure returns (string memory) {\r\n        return string(abi.encodePacked(a, b, c));\r\n    }\r\n}\r\n",
  "sourcePath": "C:\\Users\\lucas\\OneDrive\\Documentos\\Projects\\Truffle\\Warbots-Contracts\\contracts\\Part.sol",
  "compiler": {
    "name": "solc",
    "version": "0.8.0+commit.c7dfd78e.Emscripten.clang"
  },
  "schemaVersion": "3.4.9",
  "updatedAt": "2022-10-20T17:00:48.963Z",
  "networkType": "ethereum",
  "devdoc": {
    "kind": "dev",
    "methods": {
      "approve(address,uint256)": {
        "details": "See {IERC721-approve}."
      },
      "balanceOf(address)": {
        "details": "See {IERC721-balanceOf}."
      },
      "getApproved(uint256)": {
        "details": "See {IERC721-getApproved}."
      },
      "isApprovedForAll(address,address)": {
        "details": "See {IERC721-isApprovedForAll}."
      },
      "name()": {
        "details": "See {IERC721Metadata-name}."
      },
      "owner()": {
        "details": "Returns the address of the current owner."
      },
      "ownerOf(uint256)": {
        "details": "See {IERC721-ownerOf}."
      },
      "renounceOwnership()": {
        "details": "Leaves the contract without owner. It will not be possible to call `onlyOwner` functions anymore. Can only be called by the current owner. NOTE: Renouncing ownership will leave the contract without an owner, thereby removing any functionality that is only available to the owner."
      },
      "safeTransferFrom(address,address,uint256)": {
        "details": "See {IERC721-safeTransferFrom}."
      },
      "safeTransferFrom(address,address,uint256,bytes)": {
        "details": "See {IERC721-safeTransferFrom}."
      },
      "setApprovalForAll(address,bool)": {
        "details": "See {IERC721-setApprovalForAll}."
      },
      "symbol()": {
        "details": "See {IERC721Metadata-symbol}."
      },
      "tokenByIndex(uint256)": {
        "details": "See {IERC721Enumerable-tokenByIndex}."
      },
      "tokenOfOwnerByIndex(address,uint256)": {
        "details": "See {IERC721Enumerable-tokenOfOwnerByIndex}."
      },
      "totalSupply()": {
        "details": "See {IERC721Enumerable-totalSupply}."
      },
      "transferFrom(address,address,uint256)": {
        "details": "See {IERC721-transferFrom}."
      },
      "transferOwnership(address)": {
        "details": "Transfers ownership of the contract to a new account (`newOwner`). Can only be called by the current owner."
      }
    },
    "version": 1
  },
  "userdoc": {
    "kind": "user",
    "methods": {},
    "version": 1
  }
}